{
  "abi": [
    {
      "type": "constructor",
      "inputs": [],
      "stateMutability": "nonpayable"
    },
    {
      "type": "function",
      "name": "deposit",
      "inputs": [
        {
          "name": "id",
          "type": "uint256",
          "internalType": "uint256"
        },
        {
          "name": "recipient",
          "type": "address",
          "internalType": "address"
        },
        {
          "name": "destChainName",
          "type": "string",
          "internalType": "string"
        }
      ],
      "outputs": [],
      "stateMutability": "payable"
    },
    {
      "type": "function",
      "name": "getBalance",
      "inputs": [],
      "outputs": [
        {
          "name": "",
          "type": "uint256",
          "internalType": "uint256"
        }
      ],
      "stateMutability": "view"
    },
    {
      "type": "function",
      "name": "owner",
      "inputs": [],
      "outputs": [
        {
          "name": "",
          "type": "address",
          "internalType": "address"
        }
      ],
      "stateMutability": "view"
    },
    {
      "type": "function",
      "name": "withdraw",
      "inputs": [
        {
          "name": "origChainName",
          "type": "string",
          "internalType": "string"
        },
        {
          "name": "_from",
          "type": "address",
          "internalType": "address"
        },
        {
          "name": "_to",
          "type": "address",
          "internalType": "address payable"
        },
        {
          "name": "_amount",
          "type": "uint256",
          "internalType": "uint256"
        }
      ],
      "outputs": [],
      "stateMutability": "nonpayable"
    },
    {
      "type": "event",
      "name": "Deposit",
      "inputs": [
        {
          "name": "id",
          "type": "uint256",
          "indexed": true,
          "internalType": "uint256"
        },
        {
          "name": "sender",
          "type": "address",
          "indexed": false,
          "internalType": "address"
        },
        {
          "name": "recipient",
          "type": "address",
          "indexed": false,
          "internalType": "address"
        },
        {
          "name": "origChainName",
          "type": "string",
          "indexed": false,
          "internalType": "string"
        },
        {
          "name": "destChainName",
          "type": "string",
          "indexed": false,
          "internalType": "string"
        },
        {
          "name": "amount",
          "type": "uint256",
          "indexed": false,
          "internalType": "uint256"
        }
      ],
      "anonymous": false
    },
    {
      "type": "event",
      "name": "Withdrawal",
      "inputs": [
        {
          "name": "origChainName",
          "type": "string",
          "indexed": true,
          "internalType": "string"
        },
        {
          "name": "sender",
          "type": "address",
          "indexed": false,
          "internalType": "address"
        },
        {
          "name": "recipient",
          "type": "address",
          "indexed": false,
          "internalType": "address"
        },
        {
          "name": "amount",
          "type": "uint256",
          "indexed": false,
          "internalType": "uint256"
        }
      ],
      "anonymous": false
    }
  ],
  "bytecode": {
    "object": "0x6080604052348015600e575f5ffd5b50335f5f6101000a81548173ffffffffffffffffffffffffffffffffffffffff021916908373ffffffffffffffffffffffffffffffffffffffff160217905550610a748061005b5f395ff3fe60806040526004361061003e575f3560e01c806312065fe0146100425780638da5cb5b1461006c57806399e335ce14610096578063d53d5885146100be575b5f5ffd5b34801561004d575f5ffd5b506100566100da565b60405161006391906103be565b60405180910390f35b348015610077575f5ffd5b506100806100e1565b60405161008d9190610416565b60405180910390f35b3480156100a1575f5ffd5b506100bc60048036038101906100b79190610527565b610105565b005b6100d860048036038101906100d391906105ab565b6102d9565b005b5f47905090565b5f5f9054906101000a900473ffffffffffffffffffffffffffffffffffffffff1681565b5f5f9054906101000a900473ffffffffffffffffffffffffffffffffffffffff1673ffffffffffffffffffffffffffffffffffffffff163373ffffffffffffffffffffffffffffffffffffffff1614610193576040517f08c379a000000000000000000000000000000000000000000000000000000000815260040161018a90610676565b60405180910390fd5b804710156101d6576040517f08c379a00000000000000000000000000000000000000000000000000000000081526004016101cd906106de565b60405180910390fd5b5f8273ffffffffffffffffffffffffffffffffffffffff16826040516101fb90610729565b5f6040518083038185875af1925050503d805f8114610235576040519150601f19603f3d011682016040523d82523d5f602084013e61023a565b606091505b505090508061027e576040517f08c379a000000000000000000000000000000000000000000000000000000000815260040161027590610787565b60405180910390fd5b858560405161028e9291906107e1565b60405180910390207fa052c15e5318b11d40271a7828e9e8b2316a343141279befdd77f34b8f9c50088585856040516102c993929190610854565b60405180910390a2505050505050565b5f341161031b576040517f08c379a0000000000000000000000000000000000000000000000000000000008152600401610312906108d3565b60405180910390fd5b5f8282905011610360576040517f08c379a00000000000000000000000000000000000000000000000000000000081526004016103579061093b565b60405180910390fd5b837f3ca138f6d039be9c6da402e268c8377af4ed254ba32fda5821931b77fb4515b033858585346040516103989594939291906109df565b60405180910390a250505050565b5f819050919050565b6103b8816103a6565b82525050565b5f6020820190506103d15f8301846103af565b92915050565b5f73ffffffffffffffffffffffffffffffffffffffff82169050919050565b5f610400826103d7565b9050919050565b610410816103f6565b82525050565b5f6020820190506104295f830184610407565b92915050565b5f5ffd5b5f5ffd5b5f5ffd5b5f5ffd5b5f5ffd5b5f5f83601f84011261045857610457610437565b5b8235905067ffffffffffffffff8111156104755761047461043b565b5b6020830191508360018202830111156104915761049061043f565b5b9250929050565b6104a1816103f6565b81146104ab575f5ffd5b50565b5f813590506104bc81610498565b92915050565b5f6104cc826103d7565b9050919050565b6104dc816104c2565b81146104e6575f5ffd5b50565b5f813590506104f7816104d3565b92915050565b610506816103a6565b8114610510575f5ffd5b50565b5f81359050610521816104fd565b92915050565b5f5f5f5f5f608086880312156105405761053f61042f565b5b5f86013567ffffffffffffffff81111561055d5761055c610433565b5b61056988828901610443565b9550955050602061057c888289016104ae565b935050604061058d888289016104e9565b925050606061059e88828901610513565b9150509295509295909350565b5f5f5f5f606085870312156105c3576105c261042f565b5b5f6105d087828801610513565b94505060206105e1878288016104ae565b935050604085013567ffffffffffffffff81111561060257610601610433565b5b61060e87828801610443565b925092505092959194509250565b5f82825260208201905092915050565b7f4e6f742074686520636f6e7472616374206f776e6572000000000000000000005f82015250565b5f61066060168361061c565b915061066b8261062c565b602082019050919050565b5f6020820190508181035f83015261068d81610654565b9050919050565b7f496e73756666696369656e742062616c616e63650000000000000000000000005f82015250565b5f6106c860148361061c565b91506106d382610694565b602082019050919050565b5f6020820190508181035f8301526106f5816106bc565b9050919050565b5f81905092915050565b50565b5f6107145f836106fc565b915061071f82610706565b5f82019050919050565b5f61073382610709565b9150819050919050565b7f455448207472616e73666572206661696c6564000000000000000000000000005f82015250565b5f61077160138361061c565b915061077c8261073d565b602082019050919050565b5f6020820190508181035f83015261079e81610765565b9050919050565b5f81905092915050565b828183375f83830152505050565b5f6107c883856107a5565b93506107d58385846107af565b82840190509392505050565b5f6107ed8284866107bd565b91508190509392505050565b5f819050919050565b5f61081c610817610812846103d7565b6107f9565b6103d7565b9050919050565b5f61082d82610802565b9050919050565b5f61083e82610823565b9050919050565b61084e81610834565b82525050565b5f6060820190506108675f830186610407565b6108746020830185610845565b61088160408301846103af565b949350505050565b7f4d7573742073656e6420455448000000000000000000000000000000000000005f82015250565b5f6108bd600d8361061c565b91506108c882610889565b602082019050919050565b5f6020820190508181035f8301526108ea816108b1565b9050919050565b7f436861696e206e616d652063616e6e6f7420626520656d7074790000000000005f82015250565b5f610925601a8361061c565b9150610930826108f1565b602082019050919050565b5f6020820190508181035f83015261095281610919565b9050919050565b7f42616c69204265616e73000000000000000000000000000000000000000000005f82015250565b5f61098d600a8361061c565b915061099882610959565b602082019050919050565b5f601f19601f8301169050919050565b5f6109be838561061c565b93506109cb8385846107af565b6109d4836109a3565b840190509392505050565b5f60a0820190506109f25f830188610407565b6109ff6020830187610407565b8181036040830152610a1081610981565b90508181036060830152610a258185876109b3565b9050610a3460808301846103af565b969550505050505056fea2646970667358221220c9e6314a99dff7757011e23ed5cfe78a2e2b4359559c790af58f192b21cbbdae64736f6c634300081c0033",
    "linkReferences": {}
  },
  "methodIdentifiers": {
    "deposit(uint256,address,string)": "d53d5885",
    "getBalance()": "12065fe0",
    "owner()": "8da5cb5b",
    "withdraw(string,address,address,uint256)": "99e335ce"
  },
  "id": 0
}